{
  "contractName": "MyBanking",
  "abi": [
    {
      "inputs": [],
      "payable": false,
      "stateMutability": "nonpayable",
      "type": "constructor"
    },
    {
      "constant": false,
      "inputs": [
        {
          "internalType": "uint256",
          "name": "amount",
          "type": "uint256"
        }
      ],
      "name": "addAmount",
      "outputs": [],
      "payable": false,
      "stateMutability": "nonpayable",
      "type": "function"
    },
    {
      "constant": false,
      "inputs": [
        {
          "internalType": "uint256",
          "name": "amount",
          "type": "uint256"
        }
      ],
      "name": "withdrawAmount",
      "outputs": [],
      "payable": false,
      "stateMutability": "nonpayable",
      "type": "function"
    },
    {
      "constant": true,
      "inputs": [],
      "name": "checkBalance",
      "outputs": [
        {
          "internalType": "uint256",
          "name": "",
          "type": "uint256"
        }
      ],
      "payable": false,
      "stateMutability": "view",
      "type": "function"
    }
  ],
  "bytecode": "0x608060405234801561001057600080fd5b506000805561012e806100246000396000f3fe6080604052348015600f57600080fd5b5060043610603c5760003560e01c80630562b9f71460415780630912f23214605d578063c71daccb146077575b600080fd5b605b60048036036020811015605557600080fd5b5035608f565b005b605b60048036036020811015607157600080fd5b503560e8565b607d60f3565b60408051918252519081900360200190f35b60005481111560dc576040805162461bcd60e51b8152602060048201526014602482015273496e73756666696369656e742062616c616e636560601b604482015290519081900360640190fd5b60008054919091039055565b600080549091019055565b6000549056fea265627a7a723158204820061a886ec795695ca5032e5c26d7e91696ebde4ad3535766340644f17a1e64736f6c63430005100032",
  "source": "\r\npragma solidity >=0.5.16;\r\ncontract MyBanking { \r\n    // State variable to store the balance \r\n    uint256 private balance; \r\n    // Constructor to ini alize balance \r\n    constructor () public { \r\n        balance = 0; \r\n    } \r\n    // Func on to add (deposit) amount to the balance \r\n    function addAmount(uint256 amount) public { \r\n        balance += amount; \r\n    } \r\n    // Func on to withdraw amount from the balance \r\n    function withdrawAmount(uint256 amount) public { \r\n        require(amount <= balance, \"Insufficient balance\"); \r\n        balance -= amount; \r\n    } \r\n    // Func on to check the remaining balance \r\n    function checkBalance() public view returns (uint256) { \r\n        return balance; \r\n    } \r\n} \r\n",
  "sourcePath": "Z:\\MCA-BlockChain\\blockchain-toolkit\\contracts\\MyBanking.sol",
  "compiler": {
    "name": "solc",
    "version": "0.5.16+commit.9c3226ce.Emscripten.clang"
  },
  "schemaVersion": "3.4.16",
  "updatedAt": "2024-10-27T17:28:06.855Z",
  "networkType": "ethereum",
  "devdoc": {
    "methods": {}
  },
  "userdoc": {
    "methods": {}
  }
}